{
  "contractName": "Voting",
  "abi": [
    {
      "inputs": [
        {
          "internalType": "bytes32[]",
          "name": "proposalNames",
          "type": "bytes32[]"
        }
      ],
      "payable": false,
      "stateMutability": "nonpayable",
      "type": "constructor"
    },
    {
      "constant": true,
      "inputs": [],
      "name": "chairperson",
      "outputs": [
        {
          "internalType": "address",
          "name": "",
          "type": "address"
        }
      ],
      "payable": false,
      "stateMutability": "view",
      "type": "function"
    },
    {
      "constant": true,
      "inputs": [
        {
          "internalType": "uint256",
          "name": "",
          "type": "uint256"
        }
      ],
      "name": "proposals",
      "outputs": [
        {
          "internalType": "bytes32",
          "name": "name",
          "type": "bytes32"
        },
        {
          "internalType": "uint256",
          "name": "voteCount",
          "type": "uint256"
        }
      ],
      "payable": false,
      "stateMutability": "view",
      "type": "function"
    },
    {
      "constant": true,
      "inputs": [
        {
          "internalType": "address",
          "name": "",
          "type": "address"
        }
      ],
      "name": "voters",
      "outputs": [
        {
          "internalType": "uint256",
          "name": "weight",
          "type": "uint256"
        },
        {
          "internalType": "uint256",
          "name": "vote",
          "type": "uint256"
        },
        {
          "internalType": "bool",
          "name": "voted",
          "type": "bool"
        },
        {
          "internalType": "address",
          "name": "delegate",
          "type": "address"
        }
      ],
      "payable": false,
      "stateMutability": "view",
      "type": "function"
    },
    {
      "constant": false,
      "inputs": [
        {
          "internalType": "address",
          "name": "voter",
          "type": "address"
        }
      ],
      "name": "giveRightToVote",
      "outputs": [],
      "payable": false,
      "stateMutability": "nonpayable",
      "type": "function"
    },
    {
      "constant": false,
      "inputs": [
        {
          "internalType": "address",
          "name": "to",
          "type": "address"
        }
      ],
      "name": "delegate",
      "outputs": [],
      "payable": false,
      "stateMutability": "nonpayable",
      "type": "function"
    },
    {
      "constant": true,
      "inputs": [],
      "name": "winningProposal",
      "outputs": [
        {
          "internalType": "uint256",
          "name": "winningProposal_",
          "type": "uint256"
        }
      ],
      "payable": false,
      "stateMutability": "view",
      "type": "function"
    },
    {
      "constant": true,
      "inputs": [],
      "name": "winnerName",
      "outputs": [
        {
          "internalType": "bytes32",
          "name": "winnerName_",
          "type": "bytes32"
        }
      ],
      "payable": false,
      "stateMutability": "view",
      "type": "function"
    }
  ],
  "bytecode": "0x608060405234801561001057600080fd5b50604051610c74380380610c748339818101604052602081101561003357600080fd5b810190808051604051939291908464010000000082111561005357600080fd5b8382019150602082018581111561006957600080fd5b825186602082028301116401000000008211171561008657600080fd5b8083526020830192505050908051906020019060200280838360005b838110156100bd5780820151818401526020810190506100a2565b50505050905001604052505050336000806101000a81548173ffffffffffffffffffffffffffffffffffffffff021916908373ffffffffffffffffffffffffffffffffffffffff16021790555060018060008060009054906101000a900473ffffffffffffffffffffffffffffffffffffffff1673ffffffffffffffffffffffffffffffffffffffff1673ffffffffffffffffffffffffffffffffffffffff1681526020019081526020016000206000018190555060008090505b81518110156101fc57600260405180604001604052808460018151811061019b57fe5b6020026020010151815260200160008152509080600181540180825580915050906001820390600052602060002090600202016000909192909190915060008201518160000155602082015181600101555050508080600101915050610178565b5050610a678061020d6000396000f3fe608060405234801561001057600080fd5b506004361061009a576000357c010000000000000000000000000000000000000000000000000000000090048063609ff1bd11610078578063609ff1bd146101765780639e7b8d6114610194578063a3ec138d146101d8578063e2ba53f0146102755761009a565b8063013cf08b1461009f5780632e4176cf146100e85780635c19a95c14610132575b600080fd5b6100cb600480360360208110156100b557600080fd5b8101908080359060200190929190505050610293565b604051808381526020018281526020019250505060405180910390f35b6100f06102c4565b604051808273ffffffffffffffffffffffffffffffffffffffff1673ffffffffffffffffffffffffffffffffffffffff16815260200191505060405180910390f35b6101746004803603602081101561014857600080fd5b81019080803573ffffffffffffffffffffffffffffffffffffffff1690602001909291905050506102e9565b005b61017e610705565b6040518082815260200191505060405180910390f35b6101d6600480360360208110156101aa57600080fd5b81019080803573ffffffffffffffffffffffffffffffffffffffff16906020019092919050505061077c565b005b61021a600480360360208110156101ee57600080fd5b81019080803573ffffffffffffffffffffffffffffffffffffffff16906020019092919050505061097d565b60405180858152602001848152602001831515151581526020018273ffffffffffffffffffffffffffffffffffffffff1673ffffffffffffffffffffffffffffffffffffffff16815260200194505050505060405180910390f35b61027d6109da565b6040518082815260200191505060405180910390f35b600281815481106102a057fe5b90600052602060002090600202016000915090508060000154908060010154905082565b6000809054906101000a900473ffffffffffffffffffffffffffffffffffffffff1681565b6000600160003373ffffffffffffffffffffffffffffffffffffffff1673ffffffffffffffffffffffffffffffffffffffff16815260200190815260200160002090508060020160009054906101000a900460ff16156103b1576040517f08c379a00000000000000000000000000000000000000000000000000000000081526004018080602001828103825260118152602001807f596f7520616c726561647920766f74656400000000000000000000000000000081525060200191505060405180910390fd5b3373ffffffffffffffffffffffffffffffffffffffff168273ffffffffffffffffffffffffffffffffffffffff161415610453576040517f08c379a00000000000000000000000000000000000000000000000000000000081526004018080602001828103825260188152602001807f596f752063616e6e6f742073656c662d64656c6567617465000000000000000081525060200191505060405180910390fd5b5b600073ffffffffffffffffffffffffffffffffffffffff16600160008473ffffffffffffffffffffffffffffffffffffffff1673ffffffffffffffffffffffffffffffffffffffff16815260200190815260200160002060020160019054906101000a900473ffffffffffffffffffffffffffffffffffffffff1673ffffffffffffffffffffffffffffffffffffffff16146105f657600160008373ffffffffffffffffffffffffffffffffffffffff1673ffffffffffffffffffffffffffffffffffffffff16815260200190815260200160002060020160019054906101000a900473ffffffffffffffffffffffffffffffffffffffff1691503373ffffffffffffffffffffffffffffffffffffffff168273ffffffffffffffffffffffffffffffffffffffff1614156105f1576040517f08c379a000000000000000000000000000000000000000000000000000000000815260040180806020018281038252601a8152602001807f466f756e642061206c6f6f7020696e2064656c65676174696f6e00000000000081525060200191505060405180910390fd5b610454565b60018160020160006101000a81548160ff021916908315150217905550818160020160016101000a81548173ffffffffffffffffffffffffffffffffffffffff021916908373ffffffffffffffffffffffffffffffffffffffff1602179055506000600160008473ffffffffffffffffffffffffffffffffffffffff1673ffffffffffffffffffffffffffffffffffffffff16815260200190815260200160002090508060020160009054906101000a900460ff16156106e957816000015460028260010154815481106106c657fe5b906000526020600020906002020160010160008282540192505081905550610700565b816000015481600001600082825401925050819055505b505050565b6000806000905060008090505b60028054905081101561077757816002828154811061072d57fe5b906000526020600020906002020160010154111561076a576002818154811061075257fe5b90600052602060002090600202016001015491508092505b8080600101915050610712565b505090565b6000809054906101000a900473ffffffffffffffffffffffffffffffffffffffff1673ffffffffffffffffffffffffffffffffffffffff163373ffffffffffffffffffffffffffffffffffffffff1614610821576040517f08c379a000000000000000000000000000000000000000000000000000000000815260040180806020018281038252602b815260200180610a08602b913960400191505060405180910390fd5b600160008273ffffffffffffffffffffffffffffffffffffffff1673ffffffffffffffffffffffffffffffffffffffff16815260200190815260200160002060020160009054906101000a900460ff16156108e4576040517f08c379a000000000000000000000000000000000000000000000000000000000815260040180806020018281038252601b8152602001807f54686520766f7465722068617320616c726561647920766f746564000000000081525060200191505060405180910390fd5b6000600160008373ffffffffffffffffffffffffffffffffffffffff1673ffffffffffffffffffffffffffffffffffffffff168152602001908152602001600020600001541461093357600080fd5b60018060008373ffffffffffffffffffffffffffffffffffffffff1673ffffffffffffffffffffffffffffffffffffffff1681526020019081526020016000206000018190555050565b60016020528060005260406000206000915090508060000154908060010154908060020160009054906101000a900460ff16908060020160019054906101000a900473ffffffffffffffffffffffffffffffffffffffff16905084565b600060026109e6610705565b815481106109f057fe5b90600052602060002090600202016000015490509056fe4f6e6c79206368616972706572736f6e2063616e20676976652074686520726967687420746f20766f7465a265627a7a72315820bbfe2bef18ea516e7b16514d51cb162026c72eff8c6ab2e37c0a4eb4f5d9338b64736f6c63430005100032",
  "source": "//SPDX-License-Identifier: GPL-3.0\r\npragma solidity >= 0.5.0 < 0.9.0;\r\n\r\n///@title voting with delegation\r\ncontract Voting {\r\n\r\n    //Represent a single voter\r\n    struct Voter {\r\n        uint weight; //weight is accumulated by delegation\r\n        uint vote; //Index of the voted proposal\r\n        bool voted; //If true the person has already voted\r\n        address delegate; //Person delegated to\r\n    }\r\n\r\n    //Type for a single proposal to be voted on\r\n    struct Proposal {\r\n        bytes32 name; \r\n        uint voteCount; //number of accumulated votes\r\n    }\r\n\r\n    address public chairperson;\r\n\r\n    //Store a single \"Voter\" struct for each possible address\r\n    mapping(address => Voter) public voters;\r\n\r\n    //Dynamically sized-array of \"Proposal\" structs\r\n    Proposal[] public proposals;\r\n\r\n    //Create a  new ballot to choose one of \"ProposalNames\"\r\n    constructor (bytes32[] memory proposalNames) public {\r\n        chairperson = msg.sender;\r\n        voters[chairperson].weight = 1;\r\n\r\n        //For each of the provided proposal names, create a new proposal object and add it to the end of the end of the array\r\n        for(uint i = 0; i<proposalNames.length; i++) {\r\n            proposals.push(Proposal({name: proposalNames[1], voteCount: 0}));\r\n        }\r\n\r\n    }\r\n\r\n    //Give voter right to vote\r\n    //May only be called by chairperson\r\n\r\n    function giveRightToVote(address voter) public {\r\n        require(msg.sender == chairperson, \"Only chairperson can give the right to vote\");\r\n        require(!voters[voter].voted, \"The voter has already voted\");\r\n        require(voters[voter].weight == 0);\r\n        voters[voter].weight = 1;\r\n    }\r\n\r\n    //Delegate your vote to the Voter 'to'\r\n    function delegate (address to) public {\r\n        //Assigns a reference\r\n        Voter storage sender = voters[msg.sender];\r\n        require(!sender.voted, \"You already voted\");\r\n        require(to != msg.sender, \"You cannot self-delegate\");\r\n\r\n        //Forward the delegation as long as 'to' also delegated\r\n        while (voters[to].delegate != address(0)){\r\n            to = voters[to].delegate;\r\n\r\n            //We found a loop in delegation, not allowed\r\n            require(to != msg.sender, \"Found a loop in delegation\");\r\n        }\r\n\r\n        //Since sender is a reference, this modifies 'voters[msg.sender].voted'\r\n        sender.voted = true;\r\n        sender.delegate = to;\r\n        Voter storage delegate_ = voters[to];\r\n\r\n        if (delegate_.voted) {\r\n            //If delegate has already voted, directly add to the number of votes\r\n            proposals[delegate_.vote].voteCount += sender.weight;\r\n        } else {\r\n            //If delegate hasn't voted already, add to their weight\r\n            delegate_.weight += sender.weight;\r\n        }\r\n    }\r\n\r\n    //Compute the winning proposal taking into account all the previous votes into account\r\n    function winningProposal() public view returns(uint winningProposal_) {\r\n        uint winningVoteCount = 0;\r\n        for(uint p = 0; p < proposals.length; p++) {\r\n            if(proposals[p].voteCount > winningVoteCount) {\r\n                winningVoteCount = proposals[p].voteCount;\r\n                winningProposal_ = p;\r\n            }\r\n        }\r\n    }\r\n\r\n    //Calls the winningProposal() function to get the name of the winner\r\n\r\n    function winnerName() public view returns(bytes32 winnerName_) {\r\n        winnerName_ = proposals[winningProposal()].name;\r\n    }\r\n\r\n}",
  "sourcePath": "C:/Users/JOZA/Desktop/Solidity Contracts/Voting/src/contracts/Voting.sol",
  "compiler": {
    "name": "solc",
    "version": "0.5.16+commit.9c3226ce.Emscripten.clang"
  },
  "schemaVersion": "3.3.2",
  "updatedAt": "2021-06-15T14:44:29.082Z",
  "devdoc": {
    "methods": {},
    "title": "voting with delegation"
  },
  "userdoc": {
    "methods": {}
  }
}